:020000040800F2
:10000000A0050020ED0100084D460008413400081D
:1000100049460008F5090008C577000800000000FF
:100020000000000000000000000000005D66000805
:10003000F909000800000000514600086166000848
:10004000070200080702000807020008070200086C
:10005000070200080702000807020008070200085C
:10006000070200080702000807020008070200084C
:10007000070200080702000807020008070200083C
:10008000070200080000000007020008070200083D
:10009000070200080702000807020008070200081C
:1000A000070200080702000807020008070200080C
:1000B00007020008070200080702000807020008FC
:1000C00007020008070200080702000807020008EC
:1000D00007020008B97700080702000807020008B5
:1000E00007020008070200080702000807020008CC
:1000F00007020008070200080702000800000000CD
:1001000000000000070200080000000007020008CD
:1001100007020008000000007966000807020008D6
:10012000070200080702000807020008070200088B
:10013000070200080000000000000000070200089D
:10014000070200080702000800000000000000008D
:10015000000000000000000000000000000000009F
:10016000000000000000000000000000070200087E
:10017000070200080000000000000000000000006E
:10018000000000000702000800000000000000005E
:10019000000000000000000000000000000000005F
:1001A000000000000000000007020008070200082D
:1001B000070200080702000807020008000000000C
:1001C000000000000702000800000000000000001E
:1001D0000702000807020008DFF80CD000F042FB1D
:1001E00000480047C9770008A0050020064880475E
:1001F00006480047FEE7FEE7FEE7FEE7FEE7FEE70C
:10020000FEE7FEE7FEE7FEE765660008D9010008A5
:100210002DE9F05F0546002092469B46884606463B
:10022000814640241BE0284641464746224600F0CE
:10023000C4F953465A46C01A914110D31146184684
:10024000224600F0ABF92D1A67EB01084F46224613
:100250000120002100F0A2F917EB00094E41201EF9
:10026000A4F10104DFDC484631462A464346BDE896
:10027000F09FD2B201E000F8012B491EFBD270477B
:100280000022F6E710B513460A4604461946FFF762
:10029000F0FF204610BD421C10F8011B0029FBD1C5
:1002A000801A70472DE9FE4F804681EA0300C00F97
:1002B0000C46009021F0004123F00045B8EB02000D
:1002C000A94105D24046214690461C460B460246AF
:1002D00023F00040104347D0270DC7F30A00C3F3B3
:1002E0000A510290401A019040286BDAC3F31300C0
:1002F00040F4801B0098924620B10023D2EB030A01
:1003000063EB0B0B01985946C0F14002504600F0D8
:1003100045F906460D4650465946019A00F05DF9EA
:1003200010EB08006141002487EA115284EAE77368
:100330001A4340D0009A62B3019A012A4FEA075249
:1003400015DC001B61EB02014FF0004202EA07528C
:10035000CDE90042001C41F5801132462B4600F0E9
:1003600094F903B0BDE8F08F40462146F9E7001B41
:1003700061EB0201001C41F5801300185B4120185D
:10038000A2F5001747EB030140EAD570B6196D419D
:1003900011E06D084FEA360645EAC0754FEA07528C
:1003A000001B61EB0201001C41F5801149084FEA76
:1003B00030000019514132462B4603B0BDE8F04FE2
:1003C00000F054B90098012240000023D0EB020253
:1003D00063EBE073009821464FEAE074B8EB00004D
:1003E00061EB0401E9E783F000435BE781F0004142
:1003F00058E72DE9FE4F81EA030404F0004421F0A0
:10040000004100944FF0000B23F0004350EA010438
:100410005ED052EA03045BD0C3F30A54C1F30A5519
:100420002C44A4F2F3340194A0FB0254C1F3130151
:1004300041F48011C3F3130343F4801301FB02441E
:1004400000FB034E840A970A44EA815447EA835723
:10045000A4FB076802958D0A05FB07854FEA932CDC
:1004600004FB0C542705029D4FEA065847EA16374D
:10047000B5EB08056EEB070C870E920E47EA811765
:1004800042EA8312A7FB0201B6EB0B0164EB000406
:100490002B0D43EA0C335E1844EB1C50DA465146F0
:1004A000E7FB0201C5F313044FEA0B3343EA14538D
:1004B0004FEA0432019C43EA0603A4F10C040294BF
:1004C000009CCDE900B400F0E0F803B0BDE8F08F87
:1004D00000200146F9E70EB5C10F80EAE07008443C
:1004E000CA07002140F233438DE80E000A460B464E
:1004F00000F0CBF803B000BD0EB540F233410291DD
:100500000021CDE900110A460B4600F0BEF803B009
:1005100000BD00F0004230F000400AD0C10D01F5EE
:100520006071C0F3160042EA0151C208400711434E
:10053000704700200146704701F0004330B421F0BD
:10054000004150EA010206D00A0DA2F56072C1F323
:100550001301002A02DC30BC00207047440F44EA3B
:10056000C104C100E01830BC00EBC25000F047B835
:1005700030B50B46014600202022012409E021FA73
:1005800002F59D4205D303FA02F5491B04FA02F570
:100590002844151EA2F10102F1DC30BD202A04DB43
:1005A000203A00FA02F1002070479140C2F1200386
:1005B00020FA03F3194390407047202A04DB203AC5
:1005C00021FA02F00021704721FA02F3D040C2F173
:1005D00020029140084319467047202A06DBCB17BA
:1005E000203A41FA02F043EAE07306E041FA02F3EE
:1005F000D040C2F1200291400843194670470029BB
:10060000A8BF7047401C490008BF20F00100704798
:1006100010B4B0FA80FC00FA0CF050EA010404BFF8
:1006200010BC704749B1CCF1200421FA04F411FA4E
:100630000CF118BF012121430843A3EB0C01CB1D92
:100640004FEA00614FEA102042BF002010BC704703
:1006500000EBC35010440029A4BF10BC7047401CDD
:10066000490008BF20F0010010BC704710B5141EEF
:1006700073F1000408DA401C41F1000192185B415B
:100680001A4301D120F0010010BD2DE9F04D924632
:100690009B4611B1B1FA81F202E0B0FA80F2203249
:1006A0009046FFF77BFF04460F4640EA0A0041EA06
:1006B0000B0153465A46084313D0114653EA010032
:1006C00019D0C8F140025046FFF777FF05460E46A5
:1006D000504659464246FFF761FF084305D00120C6
:1006E00004E020463946BDE8F08D0020054346EA87
:1006F000E0762C4337430A986305E40AA0EB080030
:100700000022FD0A44EA47540A3002D5002001467F
:10071000E9E7010510196941DDE90845001969415A
:10072000BDE8F04DA2E72DE9F04D81EA030404F0A5
:10073000004B21F0004514464FF0000A23F0004121
:1007400050EA050220D054EA01021DD0C5F30A5731
:100750000246C5F31303C1F31300C1F30A5640F474
:10076000801543F48013A7EB0608101BD64608F249
:10077000FD3873EB050002D308F1010801E092187F
:100780005B41B8F1000F03DA00200146BDE8F08DAF
:1007900000204FF48011064684460EE0171B73EBD1
:1007A000050705D3121B63EB050306434CEA010C56
:1007B00049084FEA300092185B4150EA0107EDD139
:1007C00052EA030012D082EA040083EA05010843DA
:1007D00005D0101BAB4106D20122002306E0002207
:1007E0004FF0004302E06FF0010253101AEB0600D5
:1007F0004CEB085110EB0A0041EB0B01BDE8F04D4A
:10080000FFF734BFC1F30A52C1F3130140F2FF33C3
:1008100041F480119A4202DA00200146704740F20A
:1008200033439A42A2F2334202DC5242FFF7C5BE82
:10083000FFF7B4BE30B5041E71F1000404DB4FF0C5
:100840000044404264EB0101141E73F1000405DB17
:100850001C464FF00043524263EB0403994208BF29
:10086000904230BD064C074D06E0E06840F00103C1
:1008700094E8070098471034AC42F6D3FFF7B0FC79
:10088000A4950008C49500082DE9F04F83B040F20C
:100890002400C2F20000007830B14FF6FF7003B0C0
:1008A000BDE8F04F03F034B840F22100C2F200007E
:1008B00090F8008040F20000C2F2000040F22201F5
:1008C0000078C2F2000191F8009000FB08F0FFF7F9
:1008D00002FE824640F20100C2F2000000788B4620
:1008E00000FB09F0FFF7F7FD9FED3B0B55EC104BBC
:1008F00022462B46FFF77DFD06460F4650465946D9
:1009000022462B46FFF775FD32463B46FFF7CAFCF1
:10091000FFF712FEFFF7FDFD40F2580441EC100B0B
:10092000C2F200042EA1204642464B468DED000B3C
:1009300007F092F82046FFF7AEFC82B240F20C10AE
:10094000C2F2000021464FF47A7302F009FD40F232
:100950002700C2F20000017840F2020241F00101DA
:10096000017040F2260040F22106C2F2000001218F
:10097000C2F20002C2F20006017040F220001378B9
:100980003778C2F200000170D81B40F2030440F235
:100990002207C2F20004C2F2000721783B781070EF
:1009A000C91A2170C1B20020002500F0BFF8012053
:1009B00000F0A6F92178012000F0B8F8012000F03D
:1009C0009FF935703D704FF6FF7003B0BDE8F04FF2
:1009D00002F09EBF00BF00BF9A9999999999B93FBB
:1009E000583A25642C20593A25642C205A3A252E51
:1009F00031660A00FEE7000070470000B0B540F223
:100A00000044C4F60004054620468021012200F07F
:100A10007FFA20464021012200F07AFA2046802108
:100A2000002200F075FA20464021002200F070FA02
:100A3000A02002F019FE20468021012200F068FA71
:100A400020464021012200F063FA2046802100F078
:100A500059FA20464021002200F05AFA284602F0B6
:100A600003FE20468021012200F052FA2046402158
:100A7000012200F04DFA2046802100F043FA204682
:100A80004021002200F044FA20468021012200F09B
:100A90003FFA20464021012200F03AFA2046802108
:100AA000002200F035FA20464021002200F030FA02
:100AB000A12002F0D9FD20468021012200F028FA71
:100AC00020464021012200F023FA2046802100F038
:100AD00019FA20464021002200F01AFA002002F004
:100AE000E9FC054620468021012200F011FA20464B
:100AF0004021012200F00CFA2046802100F002FA89
:100B000020464021002200F003FA204680210022E6
:100B100000F0FEF920464021012200F0F9F92046BC
:100B20008021012200F0F4F92846B0BD70B540F2F2
:100B30000044C4F600040D460646204680210122EA
:100B400000F0E6F920464021012200F0E1F92046BC
:100B50008021002200F0DCF920464021002200F034
:100B6000D7F9A02002F080FD20468021012200F06C
:100B7000CFF920464021012200F0CAF92046802109
:100B800000F0C0F920464021002200F0C1F93046B3
:100B900002F06AFD20468021012200F0B9F92046CA
:100BA0004021012200F0B4F92046802100F0AAF98A
:100BB00020464021002200F0ABF9284602F054FD07
:100BC00020468021012200F0A3F920464021012285
:100BD00000F09EF92046802100F094F92046402143
:100BE000002200F095F920468021002200F090F9C3
:100BF00020464021012200F08BF92046802101226D
:100C0000BDE8704000F084B9EFF3108072B600BF09
:100C1000FEE7000080B5014690F82500022825D1A6
:100C20000868D1E910CE8A6C036823F00E030360D4
:100C3000136823F480731360026822F001020260DB
:100C40000EF01F00012202FA00F0CCF80400D1E9F6
:100C500013205060486D68B1026822F4807202600F
:100C6000D1E916024260002005E000BF0420C863FD
:100C7000012000E00020012281F82520002281F8D7
:100C8000242080BD80B590F8251002292ED101685E
:100C9000D0E910CE826C0B6823F00E030B600B685A
:100CA00023F001030B60116821F4807111600EF0D4
:100CB0001F02012101FA02F2CCF80420D0E913321C
:100CC0005A60426D32B1136823F480731360D0E927
:100CD0001623536080F82510826B002180F82410C1
:100CE0000AB190470021084680BD00BF0421C163BE
:100CF0000121002280F8251080F82420084680BDBC
:100D0000B0B5044600F00AF9054640F20400C2F20C
:100D100000004068611C18BF044400BF00F0FEF8EA
:100D2000401BA042FAD3B0BD2DE9F04F84B08E46EF
:100D300041F20042C4F60002DEF800400621904273
:100D4000019008BF0521002C009100F0D780019888
:100D5000002500F138424FEAB2230098012700260F
:100D60004FF00008052B38BF18460090CDF808E07A
:100D70000EE000BFDEF8004008F1010834FA07F188
:100D800006F1020607F1010705F1040500F0B6803F
:100D9000A7F1010A012000FA0AF314EA0309E9D0D5
:100DA000DEF804C00CF0030BABF10104012C17D8E2
:100DB0000198744681680322E468B2409143B440CC
:100DC0002143816041684FEA480E9943CCF30013F8
:100DD00003FA0AF30446D043194361600CE000BFF4
:100DE0000321B140019CC843BBF1030FB64603D1B8
:100DF000B6464FF0030B23E0E168029A0140936886
:100E0000BBF1020F03FA0EF341EA0301E16017D1CF
:100E10006FF0030101EA5A01214405F01C040F237D
:100E2000D1F820C003FA04FB13692CEA0B0CA34091
:100E300043EA0C03019C0B62D2F804C00CF0030BD4
:100E400021680BFA0EF2014011432160DDF808E041
:100E50001CF4403F8ED041F26000C4F202000168F1
:100E600040F2004C41F0010101600168C4F2010C44
:100E700001F00101039103992AF003014FF6084A9A
:100E80006144CFF6FF7A05F00C030F2051F80A20D9
:100E900000FA03F40098A24300FA03F31A4341F85E
:100EA0000A20DCF80810DEF8042041EA090340F2C9
:100EB0000C40D40258BF21EA0903CCF80830C4F230
:100EC00001000168940241EA090358BF21EA0903BD
:100ED0000360DCF80410940341EA090358BF21EAD7
:100EE0000903CCF80430DCF80010D20341EA09030E
:100EF00058BF21EA0903CCF800303BE704B0BDE855
:100F0000F08F00000069084018BF01207047000002
:100F10001823002A08BF2823C150704740F29C10B4
:100F2000C2F200000068704740F2040040F29C11D9
:100F3000C2F20000C2F2000140680A681044086072
:100F40007047000080B5032000F08EF8002000F00C
:100F500009F800281CBF012080BD00F029F80020FE
:100F600080BD000070B540F20406C2F20006716850
:100F7000E1B1044640F21000C2F200004FF47A7270
:100F80000068B2FBF1F1B0FBF1F000F09DFE0F2C18
:100F90004FF0010508D838B94FF0FF302146002244
:100FA000002500F035F83460284670BD012070BD82
:100FB00080B582B041F25800C4F20200816841F06D
:100FC00001018160816801F00101019101990168CD
:100FD00041F080510160006800F08050009000985E
:100FE000052000F041F802B0BDE8804000F0E0B814
:100FF000002848BF704700F01F01012202FA01F1EA
:101000004EF200124009CEF2000242F82010704762
:1010100010B54EF60C5CCEF2000CDCF80030C3F3D9
:10102000022E8EF00704042C28BF0424BEF1030313
:101030004FF0FF3E0EFA04F438BF0023A14399405D
:101040000EFA03F39A43114300F00F02043A62448C
:1010500009010C3200F16043B0F1FF3FC8BF03F556
:101060006442117010BD00004EF60C51CEF200012A
:101070000A684FF6FF031A4060F30A2242F08060CC
:1010800040F0FD7008607047B0F5007F42D0002846
:1010900040F0808047F21400C4F2000050F8141CA5
:1010A000C26E01F4C06122F48072B1F5806FC26635
:1010B0002ED150F8141C012262F34A2140F8141C6E
:1010C00040F21001C2F200010968322251434DF68C
:1010D0008362C4F21B32A1FB0212910C026852051A
:1010E00011D54A1C0FD0026852050CD559B10268BF
:1010F000520508D5012906D00268520503D50229F8
:10110000A1F10401EAD10068400544BF0320704703
:101110000020704747F21400C4F2000050F8141C7D
:10112000C26E01F4C06142F48072B1F5806FC26694
:10113000EED150F8141C012262F34A2140F8141C2D
:1011400040F21001C2F200010968322251434DF60B
:101150008362C4F21B32A1FB0212910C0268520599
:1011600011D54A1C0FD0026852050CD559B102683E
:10117000520508D5012906D00268520503D5022977
:10118000A1F10401EAD10068400544BF0320704783
:10119000BEE700BF47F21400C4F2000050F8141C70
:1011A000022262F34A2140F8141C0020704700001C
:1011B00047F20800C4F20000016841F48041016078
:1011C000704700002DE9F04182B00446807841F27A
:1011D00088060007C4F2020602D400202FE000BFF8
:1011E00056F8300C10F080580BD156F8300C40F007
:1011F000805046F8300C56F8300C00F080500190CA
:10120000019847F20007C4F20007386840F4807084
:101210003860FFF783FE05463868C00500F1D680C8
:10122000FFF77CFE401B0228F6D90320B8F1000F1F
:1012300005D156F8301C21F0805146F8301C216849
:10124000CA0713D18A0719D44A071FD40A0725D41D
:101250008A062BD44A0631D40A0637D4CA053DD4AF
:101260008A0543D44A0549D457E000BF3268636811
:1012700022F003021A4332608A07E5D53268A36878
:1012800022F00C021A4332604A07DFD53268E36865
:1012900022F030021A4332600A07D9D53268236936
:1012A00022F0C0021A4332608A06D3D532686369DD
:1012B00022F440621A4332604A06CDD53268A369EF
:1012C00022F440521A4332600A06C7D53268E369F5
:1012D00022F440421A433260CA05C1D53268236AFB
:1012E00022F440321A4332608A05BBD53268636A01
:1012F00022F440221A4332604A050ED53268A36AAE
:1013000022F440121A43B3F5801F326005D156F81B
:101310007C2C42F4801246F87C2C0A050ED53268EB
:10132000E36A22F440021A43B3F5800F326005D11C
:1013300056F87C2C42F4801246F87C2CCA040ED558
:101340003268236B22F040721A43B3F1807F32601F
:1013500005D156F87C2C42F4801246F87C2C8A0485
:101360000ED53268636B22F040621A43B3F1006F0E
:10137000326005D156F87C2C42F4801246F87C2C61
:101380004A040ED53268A36B22F040621A43B3F1CF
:10139000006F326005D156F87C2C42F4801246F87A
:1013A0007C2C09040ED53168E26B21F040511143C9
:1013B000B2F1805F316005D156F87C1C41F4803178
:1013C00046F87C1C02B0BDE8F08100BFB06810F4A4
:1013D000407010D0216C88420BD0B068B16820F406
:1013E000407041F48031B160B16821F48031B16066
:1013F000B060C0070CD1B068216C20F44070084385
:10140000B0600020B8F1000F7FF419AF11E700BF02
:10141000FFF784FD054641F2883700BFB0688007BA
:10142000E9D4FFF77BFD401BB842F7D9FDE6000089
:101430002DE9F04700286DD042F2000AC4F2020AFA
:101440000446DAF800000D4600F00F0088420CD286
:10145000DAF8000020F00F002843CAF80000DAF89C
:10146000000000F00F00A84254D1216841F20808A2
:10147000C807C4F2020803D1880740F1D880BDE054
:10148000606802283AD0032840D158F8082C92010D
:1014900040D5D8F80420D8F8043042F2004702F0D2
:1014A0000302C3F30313C0F2F4070133032A04BF9A
:1014B00043F20067C0F26E17D8F80420B7FBF3F3CD
:1014C000D8F80470C2F306225A43C7F341630227D7
:1014D00007EB4303B2FBF3F24BF20043C0F2C44309
:1014E0009A4261D9D8F8002012F0F00F51D0890744
:1014F0005AD5A168002957D14BE000BF58F8081C05
:1015000089035CBF0120BDE8F08707E058F8081C9C
:10151000490503D40120BDE8F08700BFD8F80010CA
:1015200001F00C0104293FD0D8F8001001F00C01A3
:10153000082939D0D8F8001001F00C010C2933D15A
:10154000D8F80410D8F8042042F2004301F0030157
:10155000C2F30312C0F2F4030132032904BF43F2C1
:101560000063C0F26E13D8F80410B3FBF2F2D8F89F
:101570000430C1F306215143C3F34162022303EB5C
:101580004202B1FBF2F14BF20042C0F2C44291427E
:101590000AD9D8F80010082262F307114FF00109A8
:1015A000C8F8001002E000BF4FF00009D8F80010A2
:1015B00021F003010843C8F80000FFF7AFFC06461E
:1015C00041F28837D8F80000616800F00C00B0EBF9
:1015D000810F07D0FFF7A2FC801BB842F2D903208D
:1015E000BDE8F0872168880708D4B9F1000F1ED044
:1015F000D8F8000020F0F00017E000BF480705D53C
:10160000D8F8000040F4E060C8F80000080706D5EC
:10161000D8F80000072262F30D20C8F80000D8F8BF
:101620000000A26820F0F0001043C8F80000DAF8CB
:10163000000000F00F00A8421BD9DAF8000020F0EB
:101640000F002843CAF80000FFF768FC064641F285
:10165000883700BFDAF8000000F00F00A84207D07A
:10166000FFF75CFC801BB842F4D90320BDE8F0878B
:101670002168480707D5D8F80000E26820F4E06048
:101680001043C8F80000080708D5D8F80000216901
:1016900020F4605040EAC100C8F80000D8F800000B
:1016A00042F20041C0F2F40100F00C0004280846A8
:1016B0002DD0D8F8000000F00C00082843F200609C
:1016C000C0F26E1023D0D8F8002002F00C020C2AD1
:1016D0001CD1D8F80420D8F8043002F00302C3F378
:1016E00003130133032A08BF0146D8F80400B1FBF5
:1016F000F3F1D8F80420C0F306204843C2F3416157
:10170000022202EB4101B0FBF1F000E00020D8F82A
:10171000001048F25C32C1F30311C0F60002515CC4
:1017200040F2100201F01F0120FA01F140F2040022
:10173000C2F200000068C2F200021160BDE8F0478A
:10174000FFF710BC40F2100041F20801C2F20000A5
:10175000C4F202010068096848F26C32C1F3022148
:10176000C0F60002515C01F01F01C8407047000044
:1017700040F2100041F20801C2F20000C4F202017E
:101780000068096848F26C32C1F3C221C0F6000259
:10179000515C01F01F01C8407047000041F20C018C
:1017A000C4F2020151F8040C42F20042C0F2F40209
:1017B00000F00C000428104608BF704751F8040CD4
:1017C00000F00C00082843F20060C0F26E1021D037
:1017D00051F8043C03F00C030C2B1CBF0020704795
:1017E000D1F800C00B680CF0030CC3F303130133F2
:1017F000BCF1030F08BF02460868B2FBF3F20968A8
:10180000C0F306205043C1F34161022202EB4101C3
:10181000B0FBF1F0704700002DE9F04182B00028E4
:1018200000F006810446007841F20006C007C4F2C9
:10183000020655D12078800774D42078000700F183
:1018400097802078400700F1B7802078800600F16B
:101850000781E069002840D0B16801F00C010C2933
:1018600040F05681012800F0E380F068216A00F022
:1018700003028A4240F0DC80626A6FF00F0300F0DE
:10188000F00103EB0212914240F0D280A16A00F411
:10189000FE42B2EB012F40F0CB80E16A00F07842CB
:1018A000B2EBC16F40F0C480226B0023CFF6E0732F
:1018B00003EB025200F4C0016FF31402914240F0B6
:1018C000B780616B4FF07E4202EB016100F0C060B7
:1018D00001F07E41884240F0AB800020F1E100BF82
:1018E000B06800F00C01F06808295BD0032281F099
:1018F0000C0122EA00000844B0FA80F0400951D1FE
:101900006068B0F5803F07D0B0F5A02F40F0D680DA
:10191000306840F480203060306840F480303060BF
:10192000D7E000BFB068F16800F00C00042869D06F
:1019300001F0030180F00C0081F002010844B0FACC
:1019400080F040095ED1E1683068002900F0CE8067
:1019500040F480703060FFF7E1FA054630684005DA
:1019600000F1EC80FFF7DAFA401B0228F6D920E1FB
:101970006169D6F89400002900F08C8040F00100E5
:10198000C6F89400FFF7CAFA054600BFD6F89400DF
:1019900080073FF556AFFFF7C1FA401B0228F5D983
:1019A00007E100BF306880037FF544AF606800281E
:1019B0007FF440AF3CE000BFB06D10F0805808D11C
:1019C000B06D40F08050B065B06D00F08050019077
:1019D000019847F20007C4F200073868C0052BD40D
:1019E000386840F480703860FFF798FA054600BF09
:1019F0003868C00520D4FFF791FA401B0228F7D9B8
:101A0000D7E000BF3068400501D5E06880B170685C
:101A1000216920F0FE4040EA0160706040F204005D
:101A2000C2F200000068FFF79DFA00283FF405AFFE
:101A3000012002B0BDE8F081A068012808D0052887
:101A400040F09A80D6F8900040F00400C6F890006C
:101A5000D6F8900040F00100C6F890009AE000BF70
:101A6000A169D6F89800002970D040F00100C6F8AE
:101A70009800FFF753FA0546D6F8980080073FF51F
:101A8000E8AEFFF74BFA401B02284FF00300F3D9F2
:101A900017E100BF20F00100C6F89400FFF73EFAFE
:101AA000054600BFD6F8940080077FF5CAAEFFF761
:101AB00035FA401B0228F5D97BE000BF31680028C9
:101AC00021F480313160316821F48021316000F0EF
:101AD0008F80FFF723FA0546306880033FF5AAAEF2
:101AE000FFF71CFA401B6428F6D962E020F48070EE
:101AF0003060FFF713FA0546306840057FF59DAE6C
:101B0000FFF70CFA401B02284FF00300F4D9D8E08D
:101B10003168022821F0807131604FD1FFF7FEF962
:101B2000054600BF3068800140F18E80FFF7F6F96E
:101B3000401B02284FF00300F4D9C2E0706821690D
:101B400020F0FE4040EA0160706076E620F001007F
:101B5000C6F89800FFF7E2F9054600BFD6F89800EE
:101B600080077FF576AEFFF7D9F9401B02284FF0CA
:101B70000300F3D9A5E000BFD6F89010002821F0AB
:101B80000101C6F89010D6F8901021F00401C6F8B3
:101B900090103DD0FFF7C2F9054641F2883700BFEB
:101BA000D6F89000800745D4FFF7B8F9401BB8423B
:101BB000F6D9032002B0BDE8F08100BFF0684FF60F
:101BC000FF7120F00300F060F068CFF6EE6108408E
:101BD000F060FFF7A3F90446306880017FF57DAE21
:101BE000FFF79CF9001B02284FF00300F4D968E0CE
:101BF000FFF794F9054600BF306880037FF51AAE01
:101C0000FFF78CF9401B64284FF00300F4D958E02B
:101C1000FFF784F9054641F2883700BFD6F89000F7
:101C2000800707D5FFF77AF9401BB8424FF0030051
:101C3000F4D946E0B8F1000F7FF407AEB06D20F0A4
:101C40008050B06501E600BFF06848F20C01C0F2B8
:101C50009F1104F1200700EA010C8ECF6FF00F00F6
:101C6000D4E90C5400EB02100022CFF6E07241EAF6
:101C70000C0102EB055208436FF314024FF07E454E
:101C800040EA032005EB0465104305F07E4540EA79
:101C9000C7602843F060306840F080703060F068C2
:101CA00040F08070F060FFF739F904463068800139
:101CB0003FF513AEFFF732F9001B02284FF0030087
:101CC000F4D902B0BDE8F081411E0020B0EB116FE5
:101CD0001CBF012070474EF21002CEF2000251608C
:101CE0004EF62351CEF20001F0230B7007219060D5
:101CF0001160704770470000704700007047000097
:101D000070470000704700007047000070B590F801
:101D10003C20012A4FF0020247D080F83D200268A3
:101D200043F2004C54689368C4F2010C42F6004E32
:101D30006245C4F2010E01D0724503D14D6824F40E
:101D400070042C434FF68F75CFF6FF550E682C406C
:101D500042F6FF35C4F201053443AA4254600FDC59
:101D6000B2F1804F16D040F20046C4F20006B242F3
:101D700010D040F60006C4F20006B2420AD00EE0CF
:101D8000724507D044F20006C4F20106B24201D007
:101D9000624504D1896823F08003194391600121D1
:101DA000002280F83D1080F83C20104670BD0000F5
:101DB00070470000002804BF0120704710B504469A
:101DC00090F83D0028B9002084F83C00204600F03F
:101DD00023F8022084F83D002068211D04F052FC05
:101DE000012084F8480084F83E0084F83F0084F81D
:101DF000400084F8410084F8420084F8430084F8ED
:101E0000440084F8450084F8460084F8470084F8CC
:101E10003D00002010BD000080B582B0006841F296
:101E20000001C4F20001884212D0B0F1804F0CD101
:101E300041F25800C4F20200016841F00101016062
:101E4000006800F001000190019802B080BD00BF61
:101E500041F25800C4F202000168002241F0100172
:101E600001600068002100F010000090009836200A
:101E7000FFF7CEF8362002B0BDE88040FFF7B8B8D3
:101E800090F83D1001291CBF01207047022180F805
:101E90003D10016842F6FF32C868C4F20102914267
:101EA00040F00100C8600FDCB1F1804F1ED040F25D
:101EB0000040C4F20000814218D040F60000C4F295
:101EC0000000814212D01EE042F60040C4F2010040
:101ED00081420BD044F20000C4F20100814205D0DF
:101EE00043F20040C4F2010081420CD1886807220D
:101EF000C0F201020240062A4FF0000008D0B2F5FD
:101F0000803F08BF7047086840F00100086000206B
:101F10007047000080B590F83C20012A4FF0020283
:101F200000F0A98080F83D20D0F800C08822DCF8BD
:101F30000830CFF6CE721A40CCF808200B686F2B11
:101F400010DD1F22C0F21002934237DCB3F5005FB0
:101F500046DA702B00F09280B3F5805F00F0848049
:101F6000D6E000BF2F2B35DD4F2B3FDC302B6FD061
:101F7000402B40F0CD80D1F804E0C968DCF8203077
:101F8000DCF8202022F00102CCF82020DCF8182018
:101F900022F0F00242EA011123F00A0242EA0E02A4
:101FA000CCF81810CCF82020DCF808104FF6887216
:101FB000CFF6CF721140473154E000BF3F21C0F24D
:101FC00010018B423ADC2021C0F210018B423FD03D
:101FD000302139E0E3B3102B3AD0202B38D097E0F2
:101FE00060D0B3F1101F33D092E000BF502B6DD002
:101FF000602B40F08D80D1F804E0C968DCF8203017
:1020000023F01003CCF82030DCF81830DCF8202066
:1020100023F4704322F0A00243EA013142EA0E1297
:10202000CCF81810CCF82020DCF808104FF6887295
:10203000CFF6CF721140673114E000BF4021C0F2EB
:1020400010018B4204D07021C0F210018B425FD18D
:10205000DCF808104FF68872CFF6CF7211401943A2
:1020600041F00701CCF808100022012180F83D1052
:10207000002180F83C10104680BD00BFD1E901E38B
:10208000C968DCF8082043EA0E0322F47F4243EAE1
:1020900001211143CCF80810DCF8081041F0770159
:1020A000E0E700BFD1E901E3C968DCF8082043EAB2
:1020B0000E0322F47F4243EA01211143CCF80810B9
:1020C000DCF8081041F48041CCE700BFD1F804E00F
:1020D000C968DCF82030DCF8202022F00102CCF8BE
:1020E0002020DCF8182022F0F00242EA011123F04F
:1020F0000A0242EA0E02CCF81810CCF82020DCF8D4
:1021000008104FF68872CFF6CF7211405731A9E709
:102110000122AAE77047000010B50168044608696B
:10212000800744BFC8685FEA807061D408694007CF
:1021300044BFC8685FEA407066D40869000744BFBE
:10214000C8685FEA00706DD40869C00644BFC868FB
:102150005FEAC06072D40869C0071CBFC8685FEA44
:10216000C07079D10869000644BFC8685FEA0060A2
:102170007AD40869C00544BFC8685FEA006000F10E
:102180007B800869400644BFC8685FEA406000F190
:102190007B800869800644BFC8685FEA806000F100
:1021A0007B800869C00244BFC8685FEAC02000F1B4
:1021B0007B800869800244BFC8685FEA802000F124
:1021C0007B800869400244BFC8685FEA402000F194
:1021D0007B800869000246BFC8685FEA002010BD26
:1021E0006FF4000220460A61BDE81040FFF7E0BD31
:1021F0006FF00200086101202077886980076BD0AA
:102200002046FFF787FF6DE06FF0040008610220B1
:102210002077886910F4407F68D02046FFF77AFF66
:102220006AE000BF6FF00800086104202077C869E9
:10223000800765D02046FFF76DFF67E06FF0100064
:10224000086108202077C86910F4407F62D02046DA
:10225000FFF760FF64E000BF6FF0010008612046F7
:1022600000F040FB21687DE76FF0800008612046A8
:10227000FFF742FD21687CE76FF48070086120461B
:10228000FFF738FD21687CE76FF0400008612046C9
:1022900000F05CFB21687CE76FF0200008612046BD
:1022A000FFF72CFD21687CE76FF480100861204661
:1022B000FFF728FD21687CE76FF4001008612046D5
:1022C000FFF71EFD21687CE76FF48000086120465F
:1022D000FFF71AFD21687CE7204600F025F820462C
:1022E00000F03AFA2168002020771FE7204600F02E
:1022F0001BF8204600F030FA2168002020771CE708
:10230000204600F011F8204600F026FA216800204F
:10231000207719E7204600F007F8204600F01CFA65
:1023200021680020207716E7704700002DE9F04172
:1023300090F83C30012B04BF0220BDE8F0814FEA49
:10234000B202052A00F28481DFE812F00600500094
:10235000A200F40046018A0103681A6AA3F18046CC
:1023600022F001021A621D6A1A465C6852F818CF00
:102370008F68A6F59636D1F800E025F002054FEA01
:10238000B626072E45EA07050AD80127B74017F0F9
:10239000E50F1FBFCF6825F00C0527F004073D436C
:1023A000072E0BD8012707FA06F616F0E50F1FBF18
:1023B00024F44074D1E9056734433C434FF68C76EE
:1023C000CFF6FE760CEA060747EA0E075C609F61CF
:1023D0004F6809695F631D629F6947F008079F6145
:1023E0009F6927F004079F6177E100BF036843F20C
:1023F00000461A6AC4F2010622F010021A621D6A2F
:102400001A465C6852F818EFB3428E68D1F800C0E3
:1024100025F0200545EA061505D042F60046C4F22F
:102420000106B34207D1CE686FF0400725F0C00522
:1024300007EA06163543A3F18046A6F596364FEA1D
:10244000B626072E0DD8012707FA06F616F0E50F77
:102450001FBF24F44064D1E9056744EA860444EAD6
:10246000870448F6FF46CFF6FF660EEA060747EAFE
:102470000C275C609F614F6809699F631D629F69BB
:1024800047F400679F619F6927F480679F6123E19C
:10249000036843F200461A6AC4F2010622F480720D
:1024A0001A621D6A1A465C6852F81CCFB3428E68E5
:1024B000D1F800E025F4007545EA062505D042F67E
:1024C0000046C4F20106B34207D1CE6840F2FF478E
:1024D000360225F44065BE433543A3F18046A6F598
:1024E00096364FEAB626072E0DD8012707FA06F6CC
:1024F00016F0E50F1FBF24F44054D1E9056744EA04
:10250000061444EA07144FF68C76CFF6FE760CEAF2
:10251000060747EA0E075C60DF614F680969DF6301
:102520001D62DF6947F00807DF61DF6927F00407F4
:10253000DF61D2E0036843F200461A6AC4F2010682
:1025400022F480521A621D6A1A465C6852F81CCF47
:10255000B3428E68D1F800E025F4005545EA06350F
:1025600005D042F60046C4F20106B34207D1CE6858
:1025700044F6FF77360325F44045BE433543A3F1C7
:102580008046A6F596364FEAB626072E0DD80127C7
:1025900007FA06F616F0E50F1FBF24F44044D1E910
:1025A000056744EA861444EA871448F6FF46CFF6E6
:1025B000FF660CEA060747EA0E275C60DF614F689A
:1025C00009691F641D62DF6947F40067DF61DF6925
:1025D00027F48067DF617FE003681A6AA3F1804710
:1025E00022F480321A621A46A7F59637D3F8208073
:1025F0005D6852F850EFD1F800C08E684FEAB727F7
:10260000072F09D80124BC4014F0E50F1EBF4C6908
:1026100025F4803545EA042528F4003444EA0644CC
:102620004FF68C76CFF6FE7603360EEA060747EABB
:102630000C075D601F654F6809699F641C621F6D10
:1026400047F008071F651F6D27F004071F6544E06A
:102650000121002280F83C200846BDE8F08100BF3F
:1026600003681A6AA3F1804722F480121A621A469C
:10267000A7F59637D3F820805D6852F850EFD1F86F
:1026800000C08E684FEAB727072F09D80124BC4045
:1026900014F0E50F1EBF4C6925F4802545EA84251A
:1026A00028F4001444EA065448F6FF46CFF6FF66C5
:1026B00006F540760EEA060747EA0C275D601F65BF
:1026C0004F680969DF641C621F6D47F400671F656E
:1026D0001F6D27F480671F65090213681943116095
:1026E0000021002280F83C200846BDE8F08100006F
:1026F000002804BF0120704710B5044690F83D0043
:1027000028B9002084F83C00204600F023F802207D
:1027100084F83D002068211D03F0B4FF012084F8F7
:10272000480084F83E0084F83F0084F8400084F8B4
:10273000410084F8420084F8430084F8440084F89F
:10274000450084F8460084F8470084F83D000020E6
:1027500010BD0000704700007047000061B10A1F03
:102760004FEAB202032A11D8DFE802F00214181C63
:1027700000F13F0318E000BF90F83E20012A1CBF83
:1027800001207047022280F83E202CE000F1430334
:102790000AE000BF00F1400306E000BF00F1410382
:1027A00002E000BF00F142031B78012B1CBF012097
:1027B0007047032A08D8DFE802F0030B0F1300BFAD
:1027C000022280F83F200EE0022280F843200AE037
:1027D000022280F8402006E0022280F8412002E038
:1027E000022280F84220026801F01F010120136AD2
:1027F00000FA01F18B431362136A0B43A2F180418B
:10280000A1F596314FEAB1210629136244D88840D8
:1028100010F0650F40D0506C42F6FF31C4F2010158
:1028200040F400408A42506410DCB2F1804F1FD067
:1028300040F20040C4F20000824219D040F600008D
:10284000C4F20000824213D01FE000BF42F60040F5
:10285000C4F2010082420BD044F20000C4F2010035
:10286000824205D043F20040C4F2010082420CD102
:1028700090680721C0F20101014006294FF00000D5
:1028800008D0B1F5803F08BF7047106840F00100E4
:1028900010600020704700BF42F6FF30C4F2010014
:1028A0008242C2DD43F6FF70C4F20100824207DCBF
:1028B00042F60040C4F201008242D3D1D8E700BF03
:1028C00044F20000C4F201008242D1D044F600007C
:1028D000C4F20100824202BF506C40F400405064D8
:1028E000D3E70000006841F20001C4F20001884211
:1028F00018BF704740F22000C2F20000417A013157
:10290000CAB2642A417205D3027A0021417282F070
:1029100001010172017851B1418941F289330131DC
:102920008AB29A42418122BF00214181017081799E
:1029300001290AD1818941F2883301318AB29A4250
:10294000818122BF00218171818170477047000021
:1029500090F88010012904BF022070472421C0F89C
:10296000841002681168136823F00103136021F0DA
:1029700000530021416613602022C0F8842080F8B3
:102980008010084670470000704700007047000044
:10299000B0B590F88020012A04BF0220B0BD2422E7
:1029A000C0F884200268D0F864E0D2F800C0136850
:1029B000BEF1000F23F001031360936823F06063FE
:1029C00041EA0301916019D09368916849F26C5E05
:1029D000490FC0F6000E49F274551EF80140C0F6CA
:1029E0000005695CC3F34263E400B4FBF1F11EF837
:1029F0000340EB5CE500B5FBF3F301E001210123AB
:102A0000A0F86A102021A0F86830C2F800C0C0F811
:102A10008410002180F880100846B0BDB0B590F851
:102A20008020012A04BF0220B0BD2422C0F88420E7
:102A30000268D0F864E0D2F800C01368BEF1000F5D
:102A400023F001031360936823F0604341EA03011C
:102A5000916019D09368916849F26C5E490FC0F695
:102A6000000E49F274551EF80140C0F60005695C7D
:102A7000C3F34263E400B4FBF1F11EF80340EB5CE6
:102A8000E500B5FBF3F301E001210123A0F86A1092
:102A90002021A0F86830C2F800C0C0F884100021DE
:102AA00080F880100846B0BD7047000070470000F5
:102AB0007047000070B5016840F62F03CA690446EC
:102AC00008688E681340202B0ED100F0200306F01A
:102AD00080555B1919D0216F002900F07F802046B6
:102AE000BDE87040084700BF40F60F031A420CD003
:102AF0000123C1F2000306EA030C40F22013C0F2E6
:102B00000043034013EB0C036AD1E36E012B05D1A4
:102B100012F0100318BF10F010034DD1D3020BD5E3
:102B200016F4800308D04FF4801220460A62BDE8F4
:102B30007040FFF7BBBF00BF130606D500F080034F
:102B400006F400069B1940F00B82530640F1908179
:102B500010F0400300F08C8151E8000F216820F054
:102B6000400041E80002002A00F08E81206850E811
:102B7000000F216820F0400041E80002002A00F028
:102B80008381206850E8000F216820F0400041E870
:102B90000002002A00F07881206850E8000F2168C8
:102BA00020F0400041E80002002A00F06D8120681A
:102BB00050E8000FD2E700BF102008628868400686
:102BC00000F19880B4F85C00B4F85E20B4F85E3090
:102BD000002B1CBF801A5FEA00420ED170BD00BFFF
:102BE000D30718BF10F4807340F05881930706F0A4
:102BF000010E00F15F8168E1216851E8001F226841
:102C000021F4907142E80013DBB1216851E8001F04
:102C1000226821F4907142E8001393B1216851E8D1
:102C2000001F226821F4907142E800134BB1216823
:102C300051E8001F226821F4907142E80013002B34
:102C4000DAD14FF6FE71CEF6FF7100BF226852E86E
:102C5000022F23680A4043E80226C6B1226852E8E0
:102C6000022F23680A4043E8022686B1226852E810
:102C7000022F23680A4043E8022646B1226852E840
:102C8000022F23680A4043E80226002EDED12021CD
:102C9000C4F888100021E166216700BF216851E86F
:102CA000001F226821F0100142E80013002B00F001
:102CB000D980216851E8001F226821F0100142E804
:102CC0000013002B00F0CE80216851E8001F22681D
:102CD00021F0100142E80013002B00F0C3802168AE
:102CE00051E8001F226821F0100142E80013002B78
:102CF000D4D1B7E0E06F0268536898B200283FF47F
:102D00006DAFB4F85CC06045BFF468AFA4F85E3046
:102D10001068800600F1A28051E8000F216820F4BD
:102D2000807041E80002FAB1206850E8000F216885
:102D300020F4807041E80002B2B1206850E8000F32
:102D4000216820F4807041E800026AB1206850E8F0
:102D5000000F216820F4807041E8000222B1206851
:102D600050E8000FDAE700BF206850E8020F216842
:102D700020F0010041E80202BAB3206850E8020FD7
:102D8000216820F0010041E8020272B3206850E897
:102D9000020F216820F0010041E802022AB32068F6
:102DA00050E8020F216820F0010041E80202002AE9
:102DB000DAD11AE0206850E8020F216820F04000C4
:102DC00041E80202DAB1206850E8020F216820F0E1
:102DD000400041E8020292B1206850E8020F2168E9
:102DE00020F0400041E802024AB1206850E8020F9A
:102DF000216820F0400041E80202002ADAD12020B8
:102E0000C4F888000020E066206850E8000F2168C0
:102E100020F0100041E80002DAB1206850E8000F0D
:102E2000216820F0100041E8000292B1206850E8CB
:102E3000000F216820F0100041E800024AB120682C
:102E400050E8000F216820F0100041E80002002A3D
:102E5000DAD1E06FFDF7DEFEB4F85CC0B4F85E00D6
:102E6000ACEB000081B22046BDE87040FFF78CBD9E
:102E7000110240F11F8110F0804100F01B812046BB
:102E8000BDE87040FFF710BE20200021C4F8840088
:102E900020466167BDE8704000F0D0BA01230B62A4
:102EA000D4F88C3043F00103C4F88C30930706F05B
:102EB000010E0AD5BEF1000F07D002230B62D4F831
:102EC0008C3043F00403C4F88C3053070AD5BEF1AC
:102ED000000F07D004230B62D4F88C3043F00203B8
:102EE000C4F88C3013070CD500F0200353EA0C0310
:102EF00007D008230B62D4F88C3043F00803C4F8E1
:102F00008C3013050BD510F0806308D04FF40063AC
:102F10000B62D4F88C3043F02003C4F88C30D4F822
:102F20008C30002B3FF45AAE12F020021EBF00F08E
:102F3000200006F0805210EB020040F0DF80D4F851
:102F40008C008A6800F0280002F0400280180DD141
:102F50002046FFF7ADFD0020C4F88C0070BD00BF17
:102F6000616F00297FF4BBAD38E600BF51E8000F68
:102F7000216820F4907041E80002FAB1206850E81E
:102F8000000F216820F4907041E80002B2B120687F
:102F900050E8000F216820F4907041E800026AB107
:102FA000206850E8000F216820F4907041E800028A
:102FB00022B1206850E8000FDAE700BF4FF6FE703C
:102FC000CEF6FF70216851E8021F2268014042E8F6
:102FD0000213C3B1216851E8021F2268014042E890
:102FE000021383B1216851E8021F2268014042E8C0
:102FF000021343B1216851E8021F2268014042E8F0
:103000000213002BDED1E06E012824D1206850E8A5
:10301000000F216820F0100041E80002DAB12068BA
:1030200050E8000F216820F0100041E8000292B142
:10303000206850E8000F216820F0100041E80002ED
:103040004AB1206850E8000F216820F0100041E8E4
:103050000002002ADAD120200021C4F88800E166AD
:10306000206821678168490642D550E8020F21682F
:1030700020F0400041E8020242B3206850E8020F0D
:10308000216820F0400041E80202FAB1206850E8CF
:10309000020F216820F0400041E80202B2B120682E
:1030A00050E8020F216820F0400041E802026AB1B6
:1030B0002068DAE7D1017FF591ADB0F1FF3FC8BFDD
:1030C00070BD2046BDE87040FFF760BCE06F78B18E
:1030D00046F67901C0F600018163FDF7D3FD0028B3
:1030E0003FF47CADE06F816BBDE87040084700BFE6
:1030F0002046BDE87040FFF7DBBC00BF226F002A0E
:103100003FF41DAF20469047216818E7B0B582B064
:10311000B0B10446D0F8840028B9002084F88000BB
:10312000204600F059F82420C4F884002068016883
:1031300021F001010160204603F0A0FF012803D126
:10314000012002B0B0BD00BFA06A10B1204603F05C
:103150001FFB2068416821F490414160816821F0A3
:103160002A018160016841F0010101600020C4F87A
:103170008C00FDF7D3FE216805460A6812070CD5BE
:103180006FF07E4C20464FF4001100222B46CDF804
:1031900000C004F007FA78B92168086840070FD525
:1031A0006FF07E4C20464FF4800100222B46CDF874
:1031B00000C004F0F7F918B1032002B0B0BD00BFA1
:1031C0002020C4F88400C4F888000020E06684F859
:1031D000800002B0B0BD000010B596B0044668464D
:1031E00008303C21FDF74CF8206843F60001C4F29A
:1031F0000101884202D016B010BD00BF012000902E
:10320000002468460194FDF7DDFF002818BFFDF794
:10321000FBFC41F24C00C4F20200416941F48041E0
:103220004161416901F4804111911199016841F0B6
:1032300001010160006811A900F0010011901198CE
:103240004FF4C06011900220CDE9120407201590C0
:103250004FF090401494FDF767FD252000210022D7
:10326000FDF7D6FE2520FDF7C3FE16B010BD000009
:1032700080B5D0F88830202B0CD100294FF0010305
:1032800018BF002A02D1184680BD00BF90F88030D8
:10329000012B01D1022080BD012380F88030002362
:1032A000C366D0F800C048F20003C4F200039C4596
:1032B00003D0DCF804301B0204D404F031F80023FE
:1032C000184680BD5CE800CFD0F800E04CF0806389
:1032D0004EE8003CBCF1000FEFD0036853E800CF8C
:1032E000D0F800E04CF080634EE8003CBCF1000FE9
:1032F000E3D0036853E800CFD0F800E04CF08063DF
:103300004EE8003CBCF1000FD7D0036853E800CF73
:10331000D0F800E04CF080634EE8003CBCF1000FB8
:10332000CBD0036853E800CFCEE70000006843F637
:103330000001C4F20101884240F22000C2F2000004
:1033400005D14179C2784B1C014443710A77C11CF5
:1033500040F20C10C2F200000122FFF789BF00000A
:103360002DE9F04381B00446D0F8840020280BD129
:103370000E4600294FF001005CD01746002A59D0B4
:1033800094F88000012803D1022001B0BDE8F08349
:10339000012084F880004FF0000921201D46C4F868
:1033A0008C90C4F88400FDF7B9FDA4F85470A4F81B
:1033B0005670A1680746B1F5805F07D120690028E3
:1033C0001CBF30464E46B046064601E04FF00008AE
:1033D00084F8809009E000BF16F8010B216888622C
:1033E000B4F856000138A4F85600B4F8560088B175
:1033F0002046802100223B46009504F0D3F888B98E
:10340000002EE9D138F8020B21686FF35F20886243
:103410000026E5E72046402100223B46009504F0C7
:10342000C1F818B1032001B0BDE8F0832020C4F832
:103430008400002001B0BDE8F08300007047000068
:10344000FEE70000F0B585B041F24C00C4F2020086
:10345000016840F2004441F0020101600068C4F6D6
:10346000000400F002000090009840206D4600909B
:10347000022611272046294603960197FDF754FCA2
:103480008020CDE90007204629460396FDF74CFC35
:10349000204680210022FDF73BFD204640210122ED
:1034A000FDF736FD204680210122FDF731FD05B0F4
:1034B000F0BD00002DE9F04F83B040F20045C4F6A6
:1034C00000050190284640210122FDF721FD2846F4
:1034D0008021FDF717FD0290284640210022FDF7CC
:1034E00017FD284640210122FDF712FD28468021C4
:1034F000FDF708FD8246284640210022FDF708FD21
:10350000284640210122FDF703FD28468021FDF7D2
:10351000F9FC8346284640210022FDF7F9FC2846A5
:1035200040210122FDF7F4FC28468021FDF7EAFC4A
:103530000446284640210022FDF7EAFC28464021A7
:103540000122FDF7E5FC28468021FDF7DBFC06465D
:10355000284640210022FDF7DBFC284640210122BD
:10356000FDF7D6FC28468021FDF7CCFC074628460F
:1035700040210022FDF7CCFC284640210122FDF726
:10358000C7FC28468021FDF7BDFC80462846402127
:103590000022FDF7BDFC284640210122FDF7B8FCC2
:1035A00028468021FDF7AEFC8146284640210022B6
:1035B000FDF7AEFC0198A8B1284680210022FDF756
:1035C000A7FC284640210122FDF7A2FC2846402105
:1035D0000022FDF79DFC284680210122FDF798FC82
:1035E0000FE000BF284680210122FDF791FC28460C
:1035F00040210122FDF78CFC284640210022FDF7E6
:1036000087FC0298002818BF0120BAF1000F18BFEC
:103610004FF0010A4AEA40008000BBF1000F18BFDA
:103620004FF0010B40EA4B00002C18BF012420444E
:103630008000002E18BF012640EA4600002F18BF68
:10364000012738448000B8F1000F18BF4FF001087F
:1036500040EA4800B9F1000F18BF4FF00109484493
:10366000C0B203B0BDE8F08FB0B540F20044C4F67C
:1036700000040546C20920468021FDF749FC20468A
:1036800040210122FDF744FC204640210022FDF7A5
:103690003FFCC5F3801220468021FDF739FC20460F
:1036A00040210122FDF734FC204640210022FDF795
:1036B0002FFCC5F3401220468021FDF729FC20464F
:1036C00040210122FDF724FC204640210022FDF785
:1036D0001FFCC5F3001220468021FDF719FC20468F
:1036E00040210122FDF714FC204640210022FDF775
:1036F0000FFCC5F3C00220468021FDF709FC2046DF
:1037000040210122FDF704FC204640210022FDF764
:10371000FFFBC5F3800220468021FDF7F9FB204620
:1037200040210122FDF7F4FB204640210022FDF755
:10373000EFFBC5F3400220468021FDF7E9FB204660
:1037400040210122FDF7E4FB204640210022FDF745
:10375000DFFB05F0010220468021FDF7D9FB204662
:1037600040210122FDF7D4FB204640210022FDF735
:10377000CFFB204680210122BDE8B040FDF7C8BB49
:1037800070B540F29C1040F21805C2F20000C2F27F
:10379000000501686A68891A322901D270BD00BF2C
:1037A0000068012168604FF09040FDF7ABFBC8B1A5
:1037B00040F20044C4F60004204601210126FDF732
:1037C000A1FB80B1204602210226FDF79BFB50B1F0
:1037D00020460421FDF796FB0026002808BF03269B
:1037E00001E000BF042628782E7026EA0000013888
:1037F0000328D3D8DFE800F0022E142A40F2240177
:10380000C2F200010878421CD0B2022888BF002210
:103810004FF6FF700A70BDE8704000F079B800BF45
:1038200040F22400C2F200000078022830D00128C3
:103830003CD00028B2D140F22200C2F20000017850
:1038400040F20302C2F2000219E000BFBDE870407E
:10385000FDF71AB840F22400C2F2000000780228F6
:1038600036D0012842D0002818BF70BD40F2210098
:10387000C2F20000017840F20202C2F200020131FD
:103880001278CBB2934288BF1146017070BD00BF61
:1038900040F20302C2F200021078431CD9B20120A8
:1038A0001370BDE87040FDF741B900BF40F201025E
:1038B000C2F200021078431CD8B2142888BF0A2331
:1038C000D9B203201370BDE87040FDF72FB900BFD7
:1038D00040F20202C2F200021078431CD9B200206A
:1038E0001370BDE87040FDF721B900BF40F200023F
:1038F000C2F200021078431CD8B2142888BF0A23F1
:10390000D9B202201370BDE87040FDF70FB9000076
:1039100040F21841C4F600010A6942F400720A61DB
:103920000A6942F480720A610A6842F020020A6061
:103930002022C1F8FC230A6942F020020A6100BF7C
:1039400000BF00BF0A6842F020020A600A6842F421
:1039500080720A600022C1F8FC230B6943F0200347
:103960000B6100BF00BF00BF0B6843F020030B607A
:103970000B6843F480730B600B6943F400730B61B5
:103980000B6943F480730B610B6843F020030B60F9
:103990002123C1F8FC330B6943F020030B6100BF06
:1039A00000BF00BF0B6843F020030B600B6843F4BB
:1039B00080730B60C1F8FC230A6942F020020A619F
:1039C00000BF00BF00BF0A6842F020020A600A6818
:1039D00042F480720A600A6942F400720A610A695C
:1039E00042F480720A610A6842F020020A602222D0
:1039F000C1F8FC230A6942F020020A6100BF00BF3F
:103A000000BF0A6842F020020A600A6842F480722D
:103A10000A6000BF00BF00BF0A6842F400720A607B
:103A20004FF496320B69053A43F400730B610B684F
:103A300043F480730B600B6843F020030B60C1F804
:103A4000FC030B6943F020030B6100BF00BF00BF04
:103A50000B6843F020030B600B6843F480730B602A
:103A600000BF00BF00BF0B6843F400730B600B691D
:103A700043F400730B610B6843F480730B600B68B5
:103A800043F020030B60C1F8FC030B6943F02003F3
:103A90000B6100BF00BF00BF0B6843F020030B6049
:103AA0000B6843F480730B6000BF00BF00BF0B685E
:103AB00043F400730B600B6943F400730B610B68F4
:103AC00043F480730B600B6843F020030B60C1F874
:103AD000FC030B6943F020030B6100BF00BF00BF74
:103AE0000B6843F020030B600B6843F480730B609A
:103AF00000BF00BF00BF0B6843F400730B600B698D
:103B000043F400730B610B6843F480730B600B6824
:103B100043F020030B60C1F8FC030B6943F0200362
:103B20000B6100BF00BF00BF0B6843F020030B60B8
:103B30000B6843F480730B6000BF00BF00BF0B68CD
:103B400043F400730B600B6943F400730B610B6863
:103B500043F480730B600B6843F020030B60C1F8E3
:103B6000FC030B6943F020030B6100BF00BF00BFE3
:103B70000B6843F020030B600B6843F480730B6009
:103B800000BF00BF00BF0B6843F400730B607FF4FD
:103B900049AF70472DE9F0410A78FAB148F274381C
:103BA00004464D1C002740F23F16C0F6000800BF37
:103BB000A2F12000C1B2490051FA80F008EB0012D6
:103BC000B1B2204600F00CF8EA5D002A08BFBDE85B
:103BD000F081103E132F07F10107E9D3BDE8F08112
:103BE0002DE9F04740F21843C4F600031F694FF077
:103BF000200C47F400771F611F694FF0210E47F436
:103C000080771F611F6840F20C0947F020071F6092
:103C1000C3F8FCC31F6940F26E0A47F020071F611A
:103C200000BF00BF00BF1F684FF0220847F0200709
:103C30001F601F68C2F2000947F480771F60C3F855
:103C4000FC031F69C2F2000A47F020071F6100BF92
:103C500000BF00BF1F6847F020071F601F6847F4C0
:103C600080771F601F6947F400771F611F6947F461
:103C700080771F611F6847F020071F60C3F8FCE3CF
:103C80001C6944F020041C6100BF00BF00BF1C6819
:103C900044F020041C601C6844F480741C60C3F869
:103CA000FC131C6944F020041C6100BF00BF00BF6E
:103CB0001C6844F020041C601C6844F480741C6080
:103CC000002400BF1D6945F400751D611D6945F4A0
:103CD00080751D611D6845F020051D60C3F8FC83DB
:103CE0001D6945F020051D6100BF00BF00BF1D68B4
:103CF00045F020051D601D6845F480751D6000BFFE
:103D000000BF00BF1D6845F400751D60002500BFA1
:103D100032F81460EE40F607564608BF4E46368825
:103D20001F6947F400771F611F6847F480771F60A1
:103D30001F6847F020071F60C3F8FC631E696F1CF3
:103D400046F020061E6100BF00BF00BF1E6846F09F
:103D500020061E601E6846F480761E6000BF00BF0D
:103D600000BF1E6846F400761E6032F81460FE4004
:103D7000F607564608BF4E4636881F6947F4007757
:103D80001F611F6847F480771F601F6847F0200796
:103D90001F60C3F8FC631E69AF1C46F020061E615D
:103DA00000BF00BF00BF1E6846F020061E601E68F0
:103DB00046F480761E6000BF00BF00BF1E6846F458
:103DC00000761E6032F81460FE40F607564608BFC3
:103DD0004E4636881F6947F400771F611F6847F415
:103DE00080771F601F6847F020071F60C3F8FC63DF
:103DF0001E69EF1C46F020061E6100BF00BF00BF19
:103E00001E68043546F020061E601E6846F4807663
:103E10001E6000BF00BF00BF1E6846F400761E6033
:103E200032F81460FE40F607564608BF4E46368804
:103E30001F69102D47F400771F611F6847F48077D2
:103E40001F601F6847F020071F60C3F8FC631E69EE
:103E500046F020061E6100BF00BF00BF1E6846F08E
:103E600020061E601E6846F480761E6000BF00BFFC
:103E700000BF1E6846F400761E607FF449AF1D69DE
:103E8000013045F400751D611D69013445F48075EC
:103E90001D611D68182C45F020051D60C3F8FCC38A
:103EA0001D6945F020051D6100BF00BF00BF1D68F2
:103EB00045F020051D601D6845F480751D60C5B284
:103EC000C3F8FC531D6945F020051D6100BF00BF0C
:103ED00000BF1D6845F020051D601D6845F4807514
:103EE0001D601D6945F400751D611D6945F48075EF
:103EF0001D611D6845F020051D60C3F8FCE31D69C8
:103F000045F020051D6100BF00BF00BF1D6845F0E2
:103F100020051D601D6845F480751D60C3F8FC1305
:103F20001D6945F020051D6100BF00BF00BF1D6871
:103F300045F020051D601D6845F480751D6008BFB3
:103F4000BDE8F087BEE600002DE9F04F8BB00026FB
:103F500041F24C000596C4F20200016840F2184597
:103F600041F0040101600168C4F6000501F004019C
:103F700006910699016801AC41F0010101600168F8
:103F800040F6140901F00101069106990168C4F692
:103F9000000941F0020101600068214600F00200C2
:103FA000069006984FF44870019001200290A5F108
:103FB00018000127CDE90366FCF7B6FE4FF48070C8
:103FC000CDE901074FF090402146CDE90366FCF7AB
:103FD000ABFE4FF6FF7005F57A7406904FF00308BC
:103FE00006A920460A964FF6FF7B0797CDE9086899
:103FF000FCF79AFE4FF6004ACFF6FF7A55F80A0012
:1040000006A940F4807045F80A0028684FF6FF774B
:1040100040F408702860286940F40070286128691D
:1040200040F480702861286840F020002860C9F8BA
:104030000060286940F02000286100BF00BF00BF79
:10404000286840F020002860286840F480702860CC
:1040500020460A96CDF818B0CDF82480CDE9076641
:10406000FCF762FE4FF6104BCFF6FF7B55F80B00C6
:1040700007A940F4807045F80B0000BF00BF00BFE7
:10408000D5F8F89355F80A0040F4807045F80A0016
:10409000012081E8410106A920460A960697FCF70F
:1040A00043FE286848F2302140F40070286040F256
:1040B0007000C2F20000A0F800900088884203D18E
:1040C00000F0C8FA02E000BF01F038F828690026C5
:1040D00040F40070286128694FF6FF7840F4807042
:1040E000286128684FF0030940F02000286040F65E
:1040F0001400C4F600000660286906A940F02000FC
:10410000286100BF00BF00BF286840F02000286081
:10411000286840F48070286020460A96CDE906861B
:10412000CDE90869FCF700FE55F80B0007A940F43B
:10413000807045F80B0000BF00BF00BFD5F8F873D2
:1041400055F80A0040F4807045F80A00012081E823
:10415000410206A920460A96CDF81880FCF7E4FD36
:10416000286840F40070286040F27000C2F200003D
:1041700007800BB0BDE8F08F2DE9F04140F29C10B4
:1041800040F22007C2F20000C2F2000701683A695B
:10419000891A642902D2BDE8F08100BF0068386145
:1041A0003879022826D0012852D0002818BFBDE84F
:1041B000F0814FF020303C4644F8230F002121735A
:1041C00044F65301C5F24F01A160606030202146E2
:1041D000FFF7E0FC14F8222C49F28B51C0F60001E5
:1041E000204603F039FC60202146FFF7D3FC14F889
:1041F000212C1FE04FF020303C4644F2525144F84D
:10420000230FC0F25001A160606030202146FFF70B
:10421000C1FC40F20005C2F20005AA7849F28B51B8
:10422000C0F60001204603F017FC60202146FFF78E
:10423000B1FCEA7849F29651C0F60001204603F03D
:104240000BFC07F123017820BDE8F041FFF7A2BC89
:104250004FF020303C4644F8230F4521A18145F220
:104260005021C4F24931A160606030202146FFF73F
:1042700091FC40F20008C2F2000898F80000FCF738
:104280003BF99FED170B55EC106B32462B46FCF7B4
:10429000B0F8FCF751F9FCF73CF902460B4612A1C5
:1042A000204603F0D9FB60202146FFF773FC98F805
:1042B0000100FCF721F932462B46FCF79AF8FCF78F
:1042C0003BF9FCF726F902460B460BA1204603F00A
:1042D000C3FB07F123017820BDE8F041FFF75ABC8A
:1042E0009A9999999999B93F2020202058203A20ED
:1042F000252E3166000000002020202059203A2081
:10430000252E31660000000081B0ADF80200BDF836
:10431000020040F20C01C2F20001088001B07047B7
:1043200081B0ADF80200BDF8020040F26E01C2F2A9
:104330000001088001B0704770B540F60044C4F633
:104340000004A4F58066054630464FF6FF71012251
:10435000FCF7DEFD204604210122FCF7D9FD2046B2
:1043600004210022FCF7D4FD290230460022FCF78C
:10437000CFFD204604210122FCF7CAFD204604217E
:104380000022BDE87040FCF7C3BD00002DE9F043FA
:1043900087B0002741F24C000697C4F20200016882
:1043A00040F6000541F0040101600168C4F6000513
:1043B00001F00401019101990168012241F02001FD
:1043C000016001684FF47F4601F0200101910199DD
:1043D00001684FF0010841F001010160016801F03E
:1043E000010101910199016841F002010160016838
:1043F00001F0020101910199016841F00801016099
:1044000000684FF47F4100F00800019001982846B1
:10441000FCF77EFD05F580642046042100224FF064
:104420000409FCF775FDCDE9026802AE2846314665
:10443000CDE90477FCF778FC4FF090403146CDE9A8
:1044400002870497FCF770FC0720CDE90207A5F569
:10445000806031460497FCF767FC20463146CDE981
:104460000298CDE90477FCF75FFC07B0BDE8F08364
:1044700010B594B040F274000021C2F200004FF079
:1044800080424F2340F2F3140E91CDE90C11CDE997
:104490000911CDE90711CDE90511CDE90311CDE9E8
:1044A0000111C0E90023C0E9021401618161FDF737
:1044B00081FC002818BFFCF7A7FB4FF480500B903D
:1044C00040F27400C2F200000BA9FDF723FD0028A2
:1044D00018BFFCF799FB40F27400C2F20000FEF72F
:1044E00007F9002818BFFCF78FFB40F27400002486
:1044F000C2F2000008A908940A94FDF707FC0028FE
:1045000018BFFCF781FB6020CDE9010403940594FA
:1045100040F27404C2F2000401A920460422FDF70F
:1045200005FF002818BFFCF76FFB2068B0F1804F33
:1045300002D014B010BD00BF41F24C00C4F2020022
:10454000016841F00101016000680FA900F001005D
:104550000F900F980220CDE90F000020CDE9110047
:10456000012013904FF09040FCF7DEFB14B010BD1B
:1045700010B584B040F2C00041F20001C2F2000068
:10458000C4F2000100244F2240F2E73380E8160015
:1045900080210294C3608161FDF70CFC002818BFE4
:1045A000FCF732FB40F2C000C2F2000001A9019406
:1045B0000394FDF7ABFB002818BFFCF725FB04B004
:1045C00010BD000080B540F20C1043F60001C2F2AD
:1045D0000000C4F2010100234FF00C0C4FF41652FE
:1045E00080E80E00C0E90333C0E905C3C0E9073322
:1045F000C0E90933FEF78AFD002818BFFCF704FB69
:1046000040F20C10C2F200000021FEF707FA002869
:1046100018BFFCF7F9FA40F20C10C2F200000021BA
:10462000FEF7B6F9002818BFFCF7EEFA40F20C10BE
:10463000C2F20000FEF78CF9002808BF80BDBDE87B
:104640008040FCF7E1BA0000FEE70000FEE7000052
:104650007047000040F21840C4F6000001690022D3
:1046600041F40071016101694FF0030C41F4807164
:104670000161016841F020010160C0F8FC2301697B
:1046800041F02001016100BF00BF00BF016841F09F
:1046900020010160016841F4807101600121C0F8CE
:1046A000FC13036943F02003036100BF00BF00BF98
:1046B000036843F020030360036843F480730360DE
:1046C000036943F400730361036943F48073036176
:1046D000036843F020030360C0F8FC13036943F050
:1046E0002003036100BF00BF00BF036843F0200345
:1046F0000360036843F480730360C0F8FC2302691D
:1047000042F02002026100BF00BF00BF026842F019
:1047100020020260026842F480720260026942F480
:1047200000720261026942F480720261026842F022
:10473000200202601022C0F8FC23026942F020022D
:10474000026100BF00BF00BF026842F020020260A9
:10475000026842F48072026041F29072C0F8FC2359
:10476000026942F02002026100BF00BF00BF026880
:1047700042F020020260026842F480720260026924
:1047800042F400720261026942F4807202610268BE
:1047900042F0200202606022C0F8FC23026942F06D
:1047A0002002026100BF00BF00BF026842F0200289
:1047B0000260026842F4807202604FF41C52C0F83A
:1047C000FC23026942F02002026100BF00BF00BF6B
:1047D000026842F020020260026842F480720260C5
:1047E000026942F400720261026942F4807202615D
:1047F000026842F0200202606122C0F8FC230269D4
:1048000042F02002026100BF00BF00BF026842F018
:1048100020020260026842F480720260C0F8FC1359
:10482000016941F02001016100BF00BF00BF0168C4
:1048300041F020010160016841F48071016001696B
:1048400041F400710161016941F480710161016805
:1048500041F0200101604621C0F8FC13016941F0DC
:104860002001016100BF00BF00BF016841F02001CD
:104870000160016841F4807101600221C0F8FC13FD
:10488000026942F02002026100BF00BF00BF02685F
:1048900042F020020260026842F480720260026903
:1048A00042F400720261026942F48072026102689D
:1048B00042F0200202601322C0F8FC23026942F099
:1048C0002002026100BF00BF00BF026842F0200268
:1048D0000260026842F48072026048F21002C0F87E
:1048E000FC23026942F02002026100BF00BF00BF4A
:1048F000026842F020020260026842F480720260A4
:10490000026942F400720261026942F4807202613B
:10491000026842F0200202601222C0F8FC23026901
:1049200042F02002026100BF00BF00BF026842F0F7
:1049300020020260026842F48072026048F2FE02C5
:10494000C0F8FC23026942F02002026100BF00BFF0
:1049500000BF026842F020020260026842F48072E6
:104960000260026942F400720261026942F48072DC
:104970000261026842F020020260C0F8FC13016983
:1049800041F02001016100BF00BF00BF016841F09C
:1049900020010160016841F4807101604FF4A06161
:1049A000C0F8FC13016941F02001016100BF00BFA4
:1049B00000BF016841F020010160016841F480718D
:1049C0000160016941F400710161016941F4807184
:1049D0000161016841F020010160C0F8FCC3026977
:1049E00042F02002026100BF00BF00BF026842F037
:1049F00020020260026842F48072026041F23002DA
:104A0000C0F8FC23026942F02002026100BF00BF2F
:104A100000BF026842F020020260026842F4807225
:104A20000260026942F400720261026942F480721B
:104A30000261026842F0200202603022C0F8FC23CA
:104A4000026942F02002026100BF00BF00BF02689D
:104A500042F020020260026842F48072026040F27A
:104A60000332C0F8FC23036943F02003036100BF55
:104A700000BF00BF036843F020030360036843F4F2
:104A800080730360036943F400730361036943F4B3
:104A900080730361036843F0200303603123C0F88F
:104AA000FC33036943F02003036100BF00BF00BF74
:104AB000036843F020030360036843F480730360DA
:104AC000C0F8FC23036943F02003036100BF00BF6B
:104AD00000BF036843F020030360036843F480735E
:104AE0000360036943F400730361036943F4807353
:104AF0000361036843F0200303603223C0F8FC33F2
:104B0000036943F02003036100BF00BF00BF0368D7
:104B100043F020030360036843F480730360C0F82C
:104B2000FC23036943F02003036100BF00BF00BF03
:104B3000036843F020030360036843F48073036059
:104B4000036943F400730361036943F480730361F1
:104B5000036843F0200303603323C0F8FC33036988
:104B600043F02003036100BF00BF00BF036843F0B0
:104B700020030360036843F4807303604FF44073C1
:104B8000C0F8FC33016941F02001016100BF00BFA2
:104B900000BF016841F020010160016841F48071AB
:104BA0000160016941F400710161016941F48071A2
:104BB0000161016841F0200101603421C0F8FC135B
:104BC000016941F02001016100BF00BF00BF016821
:104BD00041F020010160016841F480710160C0F87A
:104BE000FCC3016941F02001016100BF00BF00BFAB
:104BF000016841F020010160016841F480710160A9
:104C0000016941F400710161016941F48071016140
:104C1000016841F0200101603521C0F8FC130169F1
:104C200041F02001016100BF00BF00BF016841F0F9
:104C300020010160016841F480710160C0F8FC232B
:104C4000016941F02001016100BF00BF00BF0168A0
:104C500041F020010160016841F480710160016947
:104C600041F400710161016941F4807101610168E1
:104C700041F0200101603621C0F8FC13016941F0C8
:104C80002001016100BF00BF00BF016841F02001A9
:104C90000160016841F4807101601421C0F8FC13C7
:104CA000016941F02001016100BF00BF00BF016840
:104CB00041F020010160016841F4807101600169E7
:104CC00041F400710161016941F480710161016881
:104CD00041F0200101603721C0F8FC13016941F067
:104CE0002001016100BF00BF00BF016841F0200149
:104CF0000160016841F480710160C0F8FC23016922
:104D000041F02001016100BF00BF00BF016841F018
:104D100020010160016841F480710160016941F482
:104D200000710161016941F480710161016841F024
:104D3000200101603821C0F8FC13016941F0200115
:104D4000016100BF00BF00BF016841F020010160A8
:104D5000016841F480710160C0F8FC23016941F0F1
:104D60002001016100BF00BF00BF016841F02001C8
:104D70000160016841F480710160016941F40071D2
:104D80000161016941F480710161016841F0200114
:104D900001603921C0F8FC13016941F02001016173
:104DA00000BF00BF00BF016841F020010160016841
:104DB00041F480710160C0F8FC23016941F02001D9
:104DC000016100BF00BF00BF016841F02001016028
:104DD000016841F480710160016941F40071016171
:104DE000016941F480710161016841F020010160B5
:104DF0003A21C0F8FC13016941F02001016100BFB4
:104E000000BF00BF016841F020010160016841F46A
:104E100080710160C0F8FC33016941F0200101613B
:104E200000BF00BF00BF016841F0200101600168C0
:104E300041F480710160016941F40071016101690F
:104E400041F480710161016841F0200101603B2162
:104E5000C0F8FC13016941F02001016100BF00BFEF
:104E600000BF016841F020010160016841F48071D8
:104E70000160C0F8FCC3016941F02001016100BF7D
:104E800000BF00BF016841F020010160016841F4EA
:104E900080710160016941F400710161016941F4AF
:104EA00080710161016841F0200101603C21C0F87E
:104EB000FC13016941F02001016100BF00BF00BF88
:104EC000016841F020010160016841F480710160D6
:104ED000C0F8FC23016941F02001016100BF00BF5F
:104EE00000BF016841F020010160016841F4807158
:104EF0000160016941F400710161016941F480714F
:104F00000161016841F0200101603D21C0F8FC13FE
:104F1000016941F02001016100BF00BF00BF0168CD
:104F200041F020010160016841F4807101604FF49B
:104F3000A051C0F8FC13016941F02001016100BFDC
:104F400000BF00BF016841F020010160016841F429
:104F500080710160016941F400710161016941F4EE
:104F600080710161016841F0200101609221C0F867
:104F7000FC13016941F02001016100BF00BF00BFC7
:104F8000016841F020010160016841F48071016015
:104F90004FF40071C0F8FC13016941F02001016178
:104FA00000BF00BF00BF016841F02001016001683F
:104FB00041F480710160016941F40071016101698E
:104FC00041F480710161016841F020010160932189
:104FD000C0F8FC13016941F02001016100BF00BF6E
:104FE00000BF016841F020010160016841F4807157
:104FF0000160C0F8FC23016941F02001016100BF9C
:1050000000BF00BF016841F020010160016841F468
:1050100080710160016941F400710161016941F42D
:1050200080710161016841F0200101609021C0F8A8
:10503000FC13016941F02001016100BF00BF00BF06
:10504000016841F020010160016841F48071016054
:1050500040F60D01C0F8FC13016941F02001016127
:1050600000BF00BF00BF016841F02001016001687E
:1050700041F480710160016941F4007101610169CD
:1050800041F480710161016841F020010160C0F8C4
:10509000FCC3016941F02001016100BF00BF00BFF6
:1050A000016841F020010160016841F480710160F4
:1050B00041F21801C0F8FC13016941F020010161BF
:1050C00000BF00BF00BF016841F02001016001681E
:1050D00041F480710160016941F40071016101696D
:1050E00041F480710161016841F0200101600721F4
:1050F000C0F8FC13016941F02001016100BF00BF4D
:1051000000BF016841F020010160016841F4807135
:10511000016040F27311C0F8FC13016941F02001F5
:10512000016100BF00BF00BF016841F020010160C4
:10513000016841F480710160704700002DE9F04F73
:1051400081B040F21844C4F6000420694FF01209FF
:1051500040F4007020612069002540F480702061D7
:105160002068112640F020002060E320C4F8FC03F2
:1051700020694FF0130B40F02000206100BF00BFFA
:1051800000BF2068102740F02000206020684FF00A
:10519000070840F48070206043F20800C4F8FC0364
:1051A000206940F02000206100BF00BF00BF2068E0
:1051B00040F020002060206840F48070206020696A
:1051C00040F400702061206940F480702061206804
:1051D00040F020002060E720C4F8FC03206940F084
:1051E0002000206100BF00BF00BF206840F0200009
:1051F0002060206840F480702060C4F8FC9320692F
:1052000040F02000206100BF00BF00BF206840F0D8
:1052100020002060206840F480702060206940F405
:1052200000702061206940F480702061206840F0A7
:1052300020002060EF20C4F8FC03206940F020002B
:10524000206100BF00BF00BF206840F02000206048
:10525000206840F48070206041F23120C4F8FC03E3
:10526000206940F02000206100BF00BF00BF20681F
:1052700040F020002060206840F4807020602069A9
:1052800040F400702061206940F480702061206843
:1052900040F0200020600120C4F8FC03206940F0A9
:1052A0002000206100BF00BF00BF206840F0200048
:1052B0002060206840F480702060C4F8FC532069AE
:1052C00040F02000206100BF00BF00BF206840F018
:1052D00020002060206840F480702060206940F445
:1052E00000702061206940F480702061206840F0E7
:1052F000200020600220C4F8FC03206940F0200058
:10530000206100BF00BF00BF206840F02000206087
:10531000206840F4807020604FF4E060C4F8FC0323
:10532000206940F02000206100BF00BF00BF20685E
:1053300040F020002060206840F4807020602069E8
:1053400040F400702061206940F480702061206882
:1053500040F0200020600320C4F8FC03206940F0E6
:105360002000206100BF00BF00BF206840F0200087
:105370002060206840F48070206041F23000C4F862
:10538000FC03206940F02000206100BF00BF00BF87
:10539000206840F020002060206840F48070206089
:1053A000206940F400702061206940F48070206121
:1053B000206840F0200020600420C4F8FC0320692D
:1053C00040F02000206100BF00BF00BF206840F017
:1053D00020002060206840F480702060C4F8FC53F6
:1053E000206940F02000206100BF00BF00BF20689E
:1053F00040F020002060206840F480702060206928
:1054000040F400702061206940F4807020612068C1
:1054100040F0200020600820C4F8FC03206940F020
:105420002000206100BF00BF00BF206840F02000C6
:105430002060206840F48070206040F20720C4F8AB
:10544000FC03206940F02000206100BF00BF00BFC6
:10545000206840F020002060206840F480702060C8
:10546000206940F400702061206940F48070206160
:10547000206840F0200020600920C4F8FC03206967
:1054800040F02000206100BF00BF00BF206840F056
:1054900020002060206840F480702060C4F8FC5335
:1054A000206940F02000206100BF00BF00BF2068DD
:1054B00040F020002060206840F480702060206967
:1054C00040F400702061206940F480702061206801
:1054D00040F0200020600A20C4F8FC03206940F05E
:1054E0002000206100BF00BF00BF206840F0200006
:1054F0002060206840F480702060C4F8FC5320696C
:1055000040F02000206100BF00BF00BF206840F0D5
:1055100020002060206840F480702060206940F402
:1055200000702061206940F480702061206840F0A4
:10553000200020600C20C4F8FC03206940F020000B
:10554000206100BF00BF00BF206840F02000206045
:10555000206840F480702060C4F8FC53206940F05B
:105560002000206100BF00BF00BF206840F0200085
:105570002060206840F480702060206940F4007052
:105580002061206940F480702061206840F0200094
:1055900020600D20C4F8FC03206940F02000206149
:1055A00000BF00BF00BF206840F0200020602068DE
:1055B00040F480702060C4F8FC53206940F0200063
:1055C000206100BF00BF00BF206840F020002060C5
:1055D000206840F480702060206940F400702061F1
:1055E000206940F480702061206840F02000206035
:1055F0000F20C4F8FC03206940F02000206100BFA8
:1056000000BF00BF206840F020002060206840F408
:1056100080702060C4F8FC53206940F020002061B5
:1056200000BF00BF00BF206840F02000206020685D
:1056300040F480702060206940F40070206120698F
:1056400040F480702061206840F02000206010202D
:10565000C4F8FC03206940F02000206100BF00BFB7
:1056600000BF206840F020002060206840F4807077
:105670002060C4F8FC53206940F02000206100BF86
:1056800000BF00BF206840F020002060206840F488
:1056900080702060206940F400702061206940F42F
:1056A00080702061206840F020002060C4F8FC6316
:1056B000206940F02000206100BF00BF00BF2068CB
:1056C00040F020002060206840F4807020600720B7
:1056D000C4F8FC03206940F02000206100BF00BF37
:1056E00000BF206840F020002060206840F48070F7
:1056F0002060206940F400702061206940F48070CF
:105700002061206840F020002060C4F8FC932069EC
:1057100040F02000206100BF00BF00BF206840F0C3
:1057200020002060206840F480702060C4F8FC53A2
:10573000206940F02000206100BF00BF00BF20684A
:1057400040F020002060206840F4807020602069D4
:1057500040F400702061206940F48070206120686E
:1057600040F020002060C4F8FCB3206940F0200025
:10577000206100BF00BF00BF206840F02000206013
:10578000206840F480702060C4F8FC53206940F029
:105790002000206100BF00BF00BF206840F0200053
:1057A0002060206840F480702060C820FBF7A8FAD1
:1057B00020694FF0320A40F400702061206940F403
:1057C00080702061206840F020002060C4F8FC73E5
:1057D0002069102740F02000206100BF00BF00BFFB
:1057E000206840F020002060206840F48070206035
:1057F00041F29060C4F8FC03206940F02000206171
:1058000000BF00BF00BF206840F02000206020687B
:1058100040F480702060206940F4007020612069AD
:1058200040F480702061206840F020002060C4F8BF
:10583000FC63206940F02000206100BF00BF00BF72
:10584000206840F020002060206840F480702060D4
:1058500040F22720C4F8FC03206940F020002061BA
:1058600000BF00BF00BF206840F02000206020681B
:1058700040F4807020603220FBF742FA206940F447
:1058800000702061206940F480702061206840F041
:1058900020002060C4F8FC93206940F020002061C3
:1058A00000BF00BF00BF206840F0200020602068DB
:1058B00040F4807020601D20C4F8FC03206940F093
:1058C0002000206100BF00BF00BF206840F0200022
:1058D0002060206840F4807020603220FBF710FACE
:1058E000206940F400702061206940F480702061DC
:1058F000206840F020002060C4F8FCB3206940F02C
:105900002000206100BF00BF00BF206840F02000E1
:105910002060206840F4807020604FF40060C4F87C
:10592000FC03206940F02000206100BF00BF00BFE1
:10593000206840F020002060206840F480702060E3
:10594000206940F400702061206940F4807020617B
:10595000206840F0200020602920C4F8FC03206962
:1059600040F02000206100BF00BF00BF206840F071
:1059700020002060206840F4807020601420C4F86B
:10598000FC03206940F02000206100BF00BF00BF81
:10599000206840F020002060206840F48070206083
:1059A000206940F400702061206940F4807020611B
:1059B000206840F0200020602B20C4F8FC03206900
:1059C00040F02000206100BF00BF00BF206840F011
:1059D00020002060206840F4807020600B20C4F814
:1059E000FC03206940F02000206100BF00BF00BF21
:1059F000206840F020002060206840F48070206023
:105A00003220FBF77DF92069032140F4007020610A
:105A10002069072240F480702061206840F0200057
:105A200020602020C4F8FC03206940F020002061A1
:105A300000BF00BF00BF206840F020002060206849
:105A400040F480702060C4F8FC53206940F02000CE
:105A5000206100BF00BF00BF206840F02000206030
:105A6000206840F480702060206940F4007020615C
:105A7000206940F480702061206840F020002060A0
:105A80002120C4F8FC03206940F02000206100BF01
:105A900000BF00BF206840F020002060206840F474
:105AA00080702060C4F8FC53206940F02000206121
:105AB00000BF00BF00BF206840F0200020602068C9
:105AC00040F480702060206940F4007020612069FB
:105AD00040F480702061206840F020002060302079
